{
  "contractName": "GameWorld",
  "abi": [
    {
      "constant": true,
      "inputs": [],
      "name": "owner",
      "outputs": [
        {
          "name": "",
          "type": "address"
        }
      ],
      "payable": false,
      "stateMutability": "view",
      "type": "function"
    },
    {
      "constant": true,
      "inputs": [
        {
          "name": "",
          "type": "uint16"
        }
      ],
      "name": "games",
      "outputs": [
        {
          "name": "",
          "type": "address"
        }
      ],
      "payable": false,
      "stateMutability": "view",
      "type": "function"
    },
    {
      "constant": true,
      "inputs": [
        {
          "name": "",
          "type": "uint256"
        }
      ],
      "name": "gameIds",
      "outputs": [
        {
          "name": "",
          "type": "uint16"
        }
      ],
      "payable": false,
      "stateMutability": "view",
      "type": "function"
    },
    {
      "inputs": [
        {
          "name": "_owner",
          "type": "address"
        }
      ],
      "payable": false,
      "stateMutability": "nonpayable",
      "type": "constructor"
    },
    {
      "anonymous": false,
      "inputs": [
        {
          "indexed": false,
          "name": "name",
          "type": "string"
        },
        {
          "indexed": false,
          "name": "value",
          "type": "uint256"
        }
      ],
      "name": "PrintUint",
      "type": "event"
    },
    {
      "anonymous": false,
      "inputs": [
        {
          "indexed": false,
          "name": "_name",
          "type": "string"
        },
        {
          "indexed": false,
          "name": "_value",
          "type": "address"
        }
      ],
      "name": "PrintAddress",
      "type": "event"
    },
    {
      "anonymous": false,
      "inputs": [
        {
          "indexed": false,
          "name": "_name",
          "type": "string"
        },
        {
          "indexed": false,
          "name": "_value",
          "type": "bytes32"
        }
      ],
      "name": "PrintBytes32",
      "type": "event"
    },
    {
      "anonymous": false,
      "inputs": [
        {
          "indexed": false,
          "name": "_name",
          "type": "string"
        },
        {
          "indexed": false,
          "name": "_value",
          "type": "uint16"
        }
      ],
      "name": "PrintUint16",
      "type": "event"
    },
    {
      "constant": false,
      "inputs": [
        {
          "name": "id",
          "type": "uint16"
        },
        {
          "name": "_bidStartTime",
          "type": "uint256"
        },
        {
          "name": "_bidEndTime",
          "type": "uint256"
        },
        {
          "name": "_ownerCutMultiply",
          "type": "uint16"
        },
        {
          "name": "_ownerCutDivide",
          "type": "uint16"
        }
      ],
      "name": "createGame",
      "outputs": [
        {
          "name": "",
          "type": "address"
        }
      ],
      "payable": false,
      "stateMutability": "nonpayable",
      "type": "function"
    },
    {
      "constant": true,
      "inputs": [
        {
          "name": "id",
          "type": "uint16"
        }
      ],
      "name": "getGame",
      "outputs": [
        {
          "name": "",
          "type": "address"
        }
      ],
      "payable": false,
      "stateMutability": "view",
      "type": "function"
    }
  ],
  "bytecode": "0x6060604052341561000f57600080fd5b6040516020806123448339810160405280805190602001909190505060008173ffffffffffffffffffffffffffffffffffffffff161415151561005157600080fd5b80600260006101000a81548173ffffffffffffffffffffffffffffffffffffffff021916908373ffffffffffffffffffffffffffffffffffffffff160217905550506122a2806100a26000396000f30060606040526004361061006d576000357c0100000000000000000000000000000000000000000000000000000000900463ffffffff16806333cd6baa146100725780638da5cb5b146100d9578063d62cd95e1461012e578063d82c13f014610195578063db0eb185146101d4575b600080fd5b341561007d57600080fd5b610097600480803561ffff16906020019091905050610267565b604051808273ffffffffffffffffffffffffffffffffffffffff1673ffffffffffffffffffffffffffffffffffffffff16815260200191505060405180910390f35b34156100e457600080fd5b6100ec6102b1565b604051808273ffffffffffffffffffffffffffffffffffffffff1673ffffffffffffffffffffffffffffffffffffffff16815260200191505060405180910390f35b341561013957600080fd5b610153600480803561ffff169060200190919050506102d7565b604051808273ffffffffffffffffffffffffffffffffffffffff1673ffffffffffffffffffffffffffffffffffffffff16815260200191505060405180910390f35b34156101a057600080fd5b6101b6600480803590602001909190505061030a565b604051808261ffff1661ffff16815260200191505060405180910390f35b34156101df57600080fd5b610225600480803561ffff1690602001909190803590602001909190803590602001909190803561ffff1690602001909190803561ffff16906020019091905050610341565b604051808273ffffffffffffffffffffffffffffffffffffffff1673ffffffffffffffffffffffffffffffffffffffff16815260200191505060405180910390f35b600080600160008461ffff1661ffff16815260200190815260200160002060009054906101000a900473ffffffffffffffffffffffffffffffffffffffff16905080915050919050565b600260009054906101000a900473ffffffffffffffffffffffffffffffffffffffff1681565b60016020528060005260406000206000915054906101000a900473ffffffffffffffffffffffffffffffffffffffff1681565b60008181548110151561031957fe5b9060005260206000209060109182820401919006600202915054906101000a900461ffff1681565b600080600260009054906101000a900473ffffffffffffffffffffffffffffffffffffffff1673ffffffffffffffffffffffffffffffffffffffff163373ffffffffffffffffffffffffffffffffffffffff161415156103a057600080fd5b6103a98761050d565b15156103b457600080fd5b600260009054906101000a900473ffffffffffffffffffffffffffffffffffffffff16868686866103e3610587565b808673ffffffffffffffffffffffffffffffffffffffff1673ffffffffffffffffffffffffffffffffffffffff1681526020018581526020018481526020018361ffff1661ffff1681526020018261ffff1661ffff16815260200195505050505050604051809103906000f080151561045b57600080fd5b9050600080548060010182816104719190610597565b916000526020600020906010918282040191900660020289909190916101000a81548161ffff021916908361ffff1602179055505080600160008961ffff1661ffff16815260200190815260200160002060006101000a81548173ffffffffffffffffffffffffffffffffffffffff021916908373ffffffffffffffffffffffffffffffffffffffff1602179055508091505095945050505050565b600080600090505b6000805490508110156105765760008181548110151561053157fe5b90600052602060002090601091828204019190066002029054906101000a900461ffff1661ffff168361ffff16141561056957610576565b8080600101915050610515565b600080549050811015915050919050565b604051611c80806105f783390190565b8154818355818115116105cc57600f016010900481600f016010900483600052602060002091820191016105cb91906105d1565b5b505050565b6105f391905b808211156105ef5760008160009055506001016105d7565b5090565b90560060606040526000600955341561001457600080fd5b60405160a080611c80833981016040528080519060200190919080519060200190919080519060200190919080519060200190919080519060200190919050508061ffff168261ffff1610151561006a57600080fd5b838311151561007857600080fd5b42841015151561008757600080fd5b846000806101000a81548173ffffffffffffffffffffffffffffffffffffffff021916908373ffffffffffffffffffffffffffffffffffffffff160217905550836001819055508260028190555081600060146101000a81548161ffff021916908361ffff16021790555080600060166101000a81548161ffff021916908361ffff1602179055506000600560006101000a81548160ff0219169083600381111561012e57fe5b02179055505050505050611b39806101476000396000f3006060604052600436106100fb576000357c0100000000000000000000000000000000000000000000000000000000900463ffffffff1680624865de146100fd57806301aec9f31461017057806319c6dd4e146101a15780631a4960cc146101ca57806322af00fa146102345780632a744709146102b857806331d23374146102e95780633c91860c1461032b57806344ff78e91461036a5780634ba9a927146103935780636d4d09d7146103bc578063721ce101146103e5578063786b844b1461041c57806393a6e10714610426578063a23fbdd214610465578063cab440991461047a578063d1f9c24d146104b5578063fa12d782146104ec575b005b341561010857600080fd5b610122600480803561ffff16906020019091905050610501565b604051808661ffff1661ffff1681526020018581526020018461ffff1661ffff1681526020018361ffff1661ffff168152602001821515151581526020019550505050505060405180910390f35b341561017b57600080fd5b61018361056e565b604051808261ffff1661ffff16815260200191505060405180910390f35b34156101ac57600080fd5b6101b4610582565b6040518082815260200191505060405180910390f35b34156101d557600080fd5b61023260048080359060200190820180359060200191909192908035906020019082018035906020019190919290803590602001908201803590602001919091929080359060200190820180359060200191909192905050610588565b005b341561023f57600080fd5b6102556004808035906020019091905050610889565b604051808573ffffffffffffffffffffffffffffffffffffffff1673ffffffffffffffffffffffffffffffffffffffff1681526020018461ffff1661ffff1681526020018381526020018215151515815260200194505050505060405180910390f35b34156102c357600080fd5b6102cb610903565b604051808261ffff1661ffff16815260200191505060405180910390f35b34156102f457600080fd5b61031560048080359060200190820180359060200191909192905050610917565b6040518082815260200191505060405180910390f35b341561033657600080fd5b61034c6004808035906020019091905050610cfc565b604051808261ffff1661ffff16815260200191505060405180910390f35b341561037557600080fd5b61037d610d33565b6040518082815260200191505060405180910390f35b341561039e57600080fd5b6103a6610d52565b6040518082815260200191505060405180910390f35b34156103c757600080fd5b6103cf610d58565b6040518082815260200191505060405180910390f35b61041a600480803590602001908201803590602001919091929080359060200190820180359060200191909192905050610d5e565b005b610424611117565b005b341561043157600080fd5b6104476004808035906020019091905050611413565b604051808261ffff1661ffff16815260200191505060405180910390f35b341561047057600080fd5b61047861144a565b005b341561048557600080fd5b61049f600480803561ffff169060200190919050506115dc565b6040518082815260200191505060405180910390f35b34156104c057600080fd5b6104c86115f4565b604051808260038111156104d857fe5b60ff16815260200191505060405180910390f35b34156104f757600080fd5b6104ff611607565b005b60076020528060005260406000206000915090508060000160009054906101000a900461ffff16908060010154908060020160009054906101000a900461ffff16908060020160029054906101000a900461ffff16908060020160049054906101000a900460ff16905085565b600060169054906101000a900461ffff1681565b60095481565b60006105926118a3565b6000809054906101000a900473ffffffffffffffffffffffffffffffffffffffff1673ffffffffffffffffffffffffffffffffffffffff163373ffffffffffffffffffffffffffffffffffffffff161415156105ed57600080fd5b600060038111156105fa57fe5b600560009054906101000a900460ff16600381111561061557fe5b14151561062157600080fd5b878790508a8a905014151561063557600080fd5b858590508a8a905014151561064957600080fd5b838390508a8a905014151561065d57600080fd5b600091505b898990508260ff16101561087d5760008a8a8460ff16818110151561068357fe5b9050602002013561ffff1661ffff1611151561069e57600080fd5b60a0604051908101604052808b8b8560ff1681811015156106bb57fe5b9050602002013561ffff1661ffff16815260200189898560ff1681811015156106e057fe5b90506020020135815260200187878560ff1681811015156106fd57fe5b9050602002013561ffff1661ffff16815260200185858560ff16818110151561072257fe5b9050602002013561ffff1661ffff16815260200160011515815250905080600760008c8c8660ff16818110151561075557fe5b9050602002013561ffff1661ffff1661ffff16815260200190815260200160002060008201518160000160006101000a81548161ffff021916908361ffff1602179055506020820151816001015560408201518160020160006101000a81548161ffff021916908361ffff16021790555060608201518160020160026101000a81548161ffff021916908361ffff16021790555060808201518160020160046101000a81548160ff0219169083151502179055509050506006805480600101828161082091906118e1565b91600052602060002090601091828204019190066002028c8c8660ff16818110151561084857fe5b9050602002013561ffff16909190916101000a81548161ffff021916908361ffff160217905550508180600101925050610662565b50505050505050505050565b60088181548110151561089857fe5b90600052602060002090600302016000915090508060000160009054906101000a900473ffffffffffffffffffffffffffffffffffffffff16908060000160149054906101000a900461ffff16908060010154908060020160009054906101000a900460ff16905084565b600060149054906101000a900461ffff1681565b60008060008060008060009054906101000a900473ffffffffffffffffffffffffffffffffffffffff1673ffffffffffffffffffffffffffffffffffffffff163373ffffffffffffffffffffffffffffffffffffffff1614151561097a57600080fd5b600254804211151561098b57600080fd5b6001600381111561099857fe5b600560009054906101000a900460ff1660038111156109b357fe5b1415156109bf57600080fd5b6000888890501115156109d157600080fd5b610a098888808060200260200160405190810160405280939291908181526020018383602002808284378201915050505050506116f2565b1515610a1457600080fd5b878760049190610a2592919061191b565b506002600560006101000a81548160ff02191690836003811115610a4557fe5b02179055506000945060009350600092505b600880549050831015610ca157600883815481101515610a7357fe5b9060005260206000209060030201915073__uintArrayUtil_________________________634690f3fb60048460000160149054906101000a900461ffff166000604051602001526040518363ffffffff167c010000000000000000000000000000000000000000000000000000000002815260040180806020018361ffff1661ffff1681526020018281038252848181548152602001915080548015610b6157602002820191906000526020600020906000905b82829054906101000a900461ffff1661ffff1681526020019060020190602082600101049283019260010382029150808411610b285790505b5050935050505060206040518083038186803b1515610b7f57600080fd5b6102c65a03f41515610b9057600080fd5b5050506040518051905015610c945760018260020160006101000a81548160ff021916908315150217905550600760008360000160149054906101000a900461ffff1661ffff1661ffff16815260200190815260200160002060020160029054906101000a900461ffff1661ffff16600760008460000160149054906101000a900461ffff1661ffff1661ffff16815260200190815260200160002060020160009054906101000a900461ffff1661ffff16836001015402811515610c5157fe5b049350600060169054906101000a900461ffff1661ffff16600060149054906101000a900461ffff1661ffff168502811515610c8957fe5b048403935083850194505b8280600101935050610a57565b846009819055503073ffffffffffffffffffffffffffffffffffffffff16316009541115610cec573073ffffffffffffffffffffffffffffffffffffffff1631600954039550610cf1565b600095505b505050505092915050565b600481815481101515610d0b57fe5b9060005260206000209060109182820401919006600202915054906101000a900461ffff1681565b60003073ffffffffffffffffffffffffffffffffffffffff1631905090565b60025481565b60015481565b6000610d686119c9565b6001548042111515610d7957600080fd5b6002548042101515610d8a57600080fd5b60016003811115610d9757fe5b600560009054906101000a900460ff166003811115610db257fe5b141515610dbe57600080fd5b610df68888808060200260200160405190810160405280939291908181526020018383602002808284378201915050505050506116f2565b1515610e0157600080fd5b8585905088889050141515610e1557600080fd5b3473__uintArrayUtil_________________________630194db8e88886000604051602001526040518363ffffffff167c0100000000000000000000000000000000000000000000000000000000028152600401808060200182810382528484828181526020019250602002808284378201915050935050505060206040518083038186803b1515610ea657600080fd5b6102c65a03f41515610eb757600080fd5b5050506040518051905011151515610ece57600080fd5b610f368888808060200260200160405190810160405280939291908181526020018383602002808284378201915050505050508787808060200260200160405190810160405280939291908181526020018383602002808284378201915050505050506117b1565b1515610f4157600080fd5b600093505b8787905084101561110d576080604051908101604052803373ffffffffffffffffffffffffffffffffffffffff1681526020018989878181101515610f8757fe5b9050602002013561ffff1661ffff1681526020018787878181101515610fa957fe5b90506020020135815260200160001515815250925060088054806001018281610fd29190611a0e565b9160005260206000209060030201600085909190915060008201518160000160006101000a81548173ffffffffffffffffffffffffffffffffffffffff021916908373ffffffffffffffffffffffffffffffffffffffff16021790555060208201518160000160146101000a81548161ffff021916908361ffff1602179055506040820151816001015560608201518160020160006101000a81548160ff021916908315150217905550505050858585818110151561108d57fe5b90506020020135600360008a8a8881811015156110a657fe5b9050602002013561ffff1661ffff1661ffff1681526020019081526020016000205401600360008a8a8881811015156110db57fe5b9050602002013561ffff1661ffff1661ffff168152602001908152602001600020819055508380600101945050610f46565b5050505050505050565b6000806000806000809054906101000a900473ffffffffffffffffffffffffffffffffffffffff1673ffffffffffffffffffffffffffffffffffffffff163373ffffffffffffffffffffffffffffffffffffffff1614151561117857600080fd5b6002600381111561118557fe5b600560009054906101000a900460ff1660038111156111a057fe5b1415156111ac57600080fd5b6003600560006101000a81548160ff021916908360038111156111cb57fe5b02179055503073ffffffffffffffffffffffffffffffffffffffff1631600954111515156111f857600080fd5b60009350600092505b6008805490508310156113885760088381548110151561121d57fe5b906000526020600020906003020191508160020160009054906101000a900460ff161561137b57600760008360000160149054906101000a900461ffff1661ffff1661ffff16815260200190815260200160002060020160029054906101000a900461ffff1661ffff16600760008460000160149054906101000a900461ffff1661ffff1661ffff16815260200190815260200160002060020160009054906101000a900461ffff1661ffff168360010154028115156112d957fe5b049350600060169054906101000a900461ffff1661ffff16600060149054906101000a900461ffff1661ffff16850281151561131157fe5b04840393508160000160009054906101000a900473ffffffffffffffffffffffffffffffffffffffff1673ffffffffffffffffffffffffffffffffffffffff166108fc859081150290604051600060405180830381858888f19350505050151561137a57600080fd5b5b8280600101935050611201565b3073ffffffffffffffffffffffffffffffffffffffff16319050600081111561140d576000809054906101000a900473ffffffffffffffffffffffffffffffffffffffff1673ffffffffffffffffffffffffffffffffffffffff166108fc829081150290604051600060405180830381858888f19350505050151561140c57600080fd5b5b50505050565b60068181548110151561142257fe5b9060005260206000209060109182820401919006600202915054906101000a900461ffff1681565b6000806000809054906101000a900473ffffffffffffffffffffffffffffffffffffffff1673ffffffffffffffffffffffffffffffffffffffff163373ffffffffffffffffffffffffffffffffffffffff161415156114a857600080fd5b6003808111156114b457fe5b600560009054906101000a900460ff1660038111156114cf57fe5b141580156115035750600060038111156114e557fe5b600560009054906101000a900460ff16600381111561150057fe5b14155b151561150e57600080fd5b600091505b6008805490508210156115b45760088281548110151561152f57fe5b906000526020600020906003020190508060000160009054906101000a900473ffffffffffffffffffffffffffffffffffffffff1673ffffffffffffffffffffffffffffffffffffffff166108fc82600101549081150290604051600060405180830381858888f1935050505015156115a757600080fd5b8180600101925050611513565b6003600560006101000a81548160ff021916908360038111156115d357fe5b02179055505050565b60036020528060005260406000206000915090505481565b600560009054906101000a900460ff1681565b6000809054906101000a900473ffffffffffffffffffffffffffffffffffffffff1673ffffffffffffffffffffffffffffffffffffffff163373ffffffffffffffffffffffffffffffffffffffff1614151561166257600080fd5b6000600381111561166f57fe5b600560009054906101000a900460ff16600381111561168a57fe5b14151561169657600080fd5b60006006805490501115156116aa57600080fd5b60006001541115156116bb57600080fd5b60006002541115156116cc57600080fd5b6001600560006101000a81548160ff021916908360038111156116eb57fe5b0217905550565b60008060008091505b83518210156117a557600090505b60068054905081101561178157838281518110151561172457fe5b9060200190602002015161ffff1660068281548110151561174157fe5b90600052602060002090601091828204019190066002029054906101000a900461ffff1661ffff16141561177457611781565b8080600101915050611709565b6006805490508110151561179857600092506117aa565b81806001019250506116fb565b600192505b5050919050565b60008060008091505b8451821015611896576007600086848151811015156117d557fe5b9060200190602002015161ffff1661ffff16815260200190815260200160002090508060020160049054906101000a900460ff161515611818576000925061189b565b600081600101541415801561187b5750838281518110151561183657fe5b9060200190602002015160036000878581518110151561185257fe5b9060200190602002015161ffff1661ffff16815260200190815260200160002054018160010154105b15611889576000925061189b565b81806001019250506117ba565b600192505b505092915050565b60a060405190810160405280600061ffff16815260200160008152602001600061ffff168152602001600061ffff1681526020016000151581525090565b81548183558181151161191657600f016010900481600f016010900483600052602060002091820191016119159190611a40565b5b505050565b82805482825590600052602060002090600f016010900481019282156119b85791602002820160005b8382111561198857833561ffff1683826101000a81548161ffff021916908361ffff1602179055509260200192600201602081600101049283019260010302611944565b80156119b65782816101000a81549061ffff0219169055600201602081600101049283019260010302611988565b505b5090506119c59190611a65565b5090565b608060405190810160405280600073ffffffffffffffffffffffffffffffffffffffff168152602001600061ffff168152602001600081526020016000151581525090565b815481835581811511611a3b57600302816003028360005260206000209182019101611a3a9190611a96565b5b505050565b611a6291905b80821115611a5e576000816000905550600101611a46565b5090565b90565b611a9391905b80821115611a8f57600081816101000a81549061ffff021916905550600101611a6b565b5090565b90565b611b0a91905b80821115611b0657600080820160006101000a81549073ffffffffffffffffffffffffffffffffffffffff02191690556000820160146101000a81549061ffff021916905560018201600090556002820160006101000a81549060ff021916905550600301611a9c565b5090565b905600a165627a7a723058201bb716f5887cf7341c0c675ab9d053ff01590fe43a9c97e6d8605ea97571482b0029a165627a7a723058201840cc931b9a2801bc193d3a49a932d71c757f09cc94e26d94ce8306d1590a170029",
  "source": "pragma solidity ^0.4.19;\n\ncontract Base {\n    event PrintAddress(string _name, address _value);\n    event PrintBytes32(string _name, bytes32 _value);\n    event PrintUint16(string _name, uint16 _value);\n    event PrintUint(string _name, uint _value);\n\n}\n\ncontract Game is Base{\n\n    //Created: the game created, but not confirmed openning to players;\n    //Open: after owner create the game and User can bet;\n    //GameEnd, game end and get the result\n    //Close, the games is closed, and prize returned to winner;\n\n    enum State {Created, Open, GameEnd, Close}\n\n    address owner;\n\n    //the cut owner can get is totalPrize * ownerCutMultiply / ownerCutDivide, in wei\n    uint16 public ownerCutMultiply;\n\n    uint16 public ownerCutDivide;\n\n    uint public bidStartTime;\n\n    uint public bidEndTime;\n\n    //upperLimitInWei == 0 ? no limit\n    struct Option {\n        uint16 index;\n        uint upperLimitInWei;\n        uint16 oddsMultiply;\n        uint16 oddsDivide;\n        bool isValue;\n    }\n\n    mapping(uint16 => uint) public betAmounts;\n\n    uint16[] public winOptionIndexs;\n\n    struct Bet {\n        address player;\n        uint16 option;\n        uint amount;// in wei\n        bool win;\n    }\n\n    State public gameState;\n    uint16[] public optionIndexs;\n    //options of the game\n    mapping(uint16 => Option) public options;\n\n    Bet[] public bets;\n\n    uint public finalTotalPrize = uint(0);\n\n    modifier isOwner() {\n        require(msg.sender == owner);\n        _;\n    }\n\n    modifier onlyBefore(uint _time) { require(now < _time); _; }\n    modifier onlyAfter(uint _time) { require(now > _time); _; }\n\n\n    // the index must > 0\n    function Game(address _owner, uint _bidStartTime, uint _bidEndTime, uint16 _ownerCutMultiply, uint16 _ownerCutDivide) public {\n        require(_ownerCutMultiply < _ownerCutDivide);\n        require(_bidEndTime > _bidStartTime);\n        require(_bidStartTime >= now);\n        owner = _owner;\n        bidStartTime = _bidStartTime;\n        bidEndTime = _bidEndTime;\n        ownerCutMultiply = _ownerCutMultiply;\n        ownerCutDivide = _ownerCutDivide;\n        gameState = State.Created;\n    }\n\n    function addOptions(uint16 [] index, uint [] upperLimitInWei, uint16 [] oddsMultiply, uint16 [] oddsDivide) external isOwner {\n        require(gameState == State.Created);\n        require(index.length == upperLimitInWei.length);\n        require(index.length == oddsMultiply.length);\n        require(index.length == oddsDivide.length);\n        for(uint8 i =0;i<index.length;i++) {\n            require(index[i] > 0);\n            Option memory o = Option(index[i], upperLimitInWei[i], oddsMultiply[i], oddsDivide[i], true);\n            options[index[i]] = o;\n            optionIndexs.push(index[i]);\n        }\n    }\n\n    function openGame() external isOwner {\n        require(gameState == State.Created);\n        require(optionIndexs.length > 0);\n        require(bidStartTime > 0);\n        require(bidEndTime > 0);\n        gameState = State.Open;\n    }\n\n    function payerBet(uint16 [] index, uint [] amount)  external payable onlyAfter(bidStartTime) onlyBefore(bidEndTime) {\n        require(gameState == State.Open);\n        require(checkOptionsValid(index));\n        require(index.length == amount.length);\n        require(uintArrayUtil.sum(amount) <= msg.value);\n        require(indexAndUpperLimitCheck(index, amount));\n        for(uint i=0;i<index.length;i++) {\n            Bet memory b = Bet(msg.sender, index[i], amount[i], false);\n            bets.push(b);\n            betAmounts[index[i]] = betAmounts[index[i]] + amount[i];\n        }\n    }\n\n    /**\n     * returns > 0, need the owner transfer that amount of wei and the game can close;\n     * returns = 0, no need for the owner to transfer\n     *\n     */\n    function sendResult(uint16[] _winOptionIndexs) external isOwner onlyAfter(bidEndTime) returns(uint) {\n        require(gameState == State.Open);\n        require(_winOptionIndexs.length>0);\n        require(checkOptionsValid(_winOptionIndexs));\n        winOptionIndexs = _winOptionIndexs;\n        gameState = State.GameEnd;\n        uint totalPrize = uint(0);\n        uint userPrize = uint(0);\n        for(uint i=0;i<bets.length;i++) {\n            Bet storage bet = bets[i];\n            if(uintArrayUtil.contains(winOptionIndexs, bet.option)) {\n                bet.win = true;\n                userPrize = bet.amount * options[bet.option].oddsMultiply / options[bet.option].oddsDivide;\n                userPrize = userPrize - userPrize * ownerCutMultiply / ownerCutDivide;\n                totalPrize = totalPrize + userPrize;\n            }\n        }\n        //substract the owner cut\n        finalTotalPrize = totalPrize;\n        if(finalTotalPrize > address(this).balance) {\n            return finalTotalPrize - address(this).balance;\n        } else {\n            return uint(0);\n        }\n    }\n\n    function queryAccountBalance() external view returns (uint balance) {\n        return address(this).balance;\n    }\n\n    function closeGame() external payable isOwner {\n        require(gameState == State.GameEnd);\n        gameState = State.Close;\n        require(finalTotalPrize <= address(this).balance);\n        uint userPrize = uint(0);\n        for(uint i=0;i<bets.length;i++) {\n            Bet storage bet = bets[i];\n            if(bet.win) {\n                userPrize = bet.amount * options[bet.option].oddsMultiply / options[bet.option].oddsDivide;\n                userPrize = userPrize - userPrize * ownerCutMultiply / ownerCutDivide;\n                bet.player.transfer(userPrize);\n            }\n        }\n\n        uint release = address(this).balance;\n        if(release > 0) {\n            owner.transfer(release);\n        }\n    }\n\n    function CloseGameInForce() external isOwner {\n        require(gameState != State.Close && gameState != State.Created);\n        for(uint i=0;i<bets.length;i++) {\n            Bet storage bet = bets[i];\n            bet.player.transfer(bet.amount);\n        }\n        gameState = State.Close;\n    }\n\n    function checkOptionsValid(uint16[] _winOptionIndexs) internal view returns (bool){\n        for(uint i=0;i<_winOptionIndexs.length;i++) {\n            uint j = 0;\n            while(j < optionIndexs.length) {\n                if(optionIndexs[j] == _winOptionIndexs[i]){\n                    break;\n                }\n                j++;\n            }\n            if(j >= optionIndexs.length) {\n                return false;\n            }\n        }\n        return true;\n    }\n\n\n\n    function indexAndUpperLimitCheck(uint16[] index, uint [] amount) internal view returns(bool){\n        for(uint i=0;i<index.length;i++) {\n            Option storage option = options[index[i]];\n            if(!option.isValue)\n                return false;\n            if(option.upperLimitInWei != 0 && option.upperLimitInWei < betAmounts[index[i]] + amount[i]){\n                return false;\n            }\n        }\n        return true;\n\n    }\n\n    function () external payable {\n    }\n\n}\n\n\ncontract GameWorld is Base {\n    uint16[] public gameIds;\n    mapping(uint16 => address) public games;\n    address public owner;\n    event PrintUint(string name, uint value);\n\n    modifier isOwner() {\n        require(msg.sender == owner);\n        _;\n    }\n\n    function GameWorld(address _owner) public {\n        require(_owner != 0);\n        owner = _owner;\n    }\n\n    function createGame(uint16 id, uint _bidStartTime, uint _bidEndTime, uint16 _ownerCutMultiply, uint16 _ownerCutDivide) external isOwner returns (address) {\n        require(checkGameIdValid(id));\n        address game = new Game(owner, _bidStartTime, _bidEndTime, _ownerCutMultiply, _ownerCutDivide);\n        gameIds.push(id);\n        games[id] = game;\n        return game;\n    }\n\n    function getGame(uint16 id) external view returns (address) {\n        address game = games[id];\n        return game;\n    }\n\n    function checkGameIdValid(uint16 id) internal view returns (bool){\n        uint i = 0;\n        while(i<gameIds.length) {\n            if(id == gameIds[i]) {\n                break;\n            }\n            i++;\n        }\n        return i >= gameIds.length;\n    }\n\n}\n\nlibrary uintArrayUtil {\n\n    function sum(uint [] array) public pure returns (uint){\n        uint total;\n        for(uint i=0;i<array.length;i++) {\n            total = total + array[i];\n        }\n        return total;\n    }\n\n    function contains(uint16[] array, uint16 item) public pure returns (bool){\n        for(uint i=0;i<array.length;i++) {\n            if(array[i] == item) {\n                return true;\n            }\n        }\n        return false;\n    }\n\n\n\n}\n",
  "sourcePath": "/Users/Kael/Documents/ethereum/worldcup2/contract/contracts/GameWorld.sol",
  "compiler": {
    "name": "solc",
    "version": "0.4.19+commit.c4cbbb05.Emscripten.clang"
  },
  "schemaVersion": "2.0.0",
  "updatedAt": "2018-04-19T14:33:58.720Z"
}